{
  "_format": "hh-sol-artifact-1",
  "contractName": "CryptoDevs",
  "sourceName": "contracts/cryptodevs.sol",
  "abi": [
    {
      "inputs": [
        {
          "internalType": "address",
          "name": "whitelistContract",
          "type": "address"
        }
      ],
      "stateMutability": "nonpayable",
      "type": "constructor"
    },
    {
      "anonymous": false,
      "inputs": [
        {
          "indexed": true,
          "internalType": "address",
          "name": "owner",
          "type": "address"
        },
        {
          "indexed": true,
          "internalType": "address",
          "name": "approved",
          "type": "address"
        },
        {
          "indexed": true,
          "internalType": "uint256",
          "name": "tokenId",
          "type": "uint256"
        }
      ],
      "name": "Approval",
      "type": "event"
    },
    {
      "anonymous": false,
      "inputs": [
        {
          "indexed": true,
          "internalType": "address",
          "name": "owner",
          "type": "address"
        },
        {
          "indexed": true,
          "internalType": "address",
          "name": "operator",
          "type": "address"
        },
        {
          "indexed": false,
          "internalType": "bool",
          "name": "approved",
          "type": "bool"
        }
      ],
      "name": "ApprovalForAll",
      "type": "event"
    },
    {
      "anonymous": false,
      "inputs": [
        {
          "indexed": true,
          "internalType": "address",
          "name": "previousOwner",
          "type": "address"
        },
        {
          "indexed": true,
          "internalType": "address",
          "name": "newOwner",
          "type": "address"
        }
      ],
      "name": "OwnershipTransferred",
      "type": "event"
    },
    {
      "anonymous": false,
      "inputs": [
        {
          "indexed": true,
          "internalType": "address",
          "name": "from",
          "type": "address"
        },
        {
          "indexed": true,
          "internalType": "address",
          "name": "to",
          "type": "address"
        },
        {
          "indexed": true,
          "internalType": "uint256",
          "name": "tokenId",
          "type": "uint256"
        }
      ],
      "name": "Transfer",
      "type": "event"
    },
    {
      "inputs": [],
      "name": "NFTPrice",
      "outputs": [
        {
          "internalType": "uint256",
          "name": "",
          "type": "uint256"
        }
      ],
      "stateMutability": "view",
      "type": "function"
    },
    {
      "inputs": [
        {
          "internalType": "address",
          "name": "to",
          "type": "address"
        },
        {
          "internalType": "uint256",
          "name": "tokenId",
          "type": "uint256"
        }
      ],
      "name": "approve",
      "outputs": [],
      "stateMutability": "nonpayable",
      "type": "function"
    },
    {
      "inputs": [
        {
          "internalType": "address",
          "name": "owner",
          "type": "address"
        }
      ],
      "name": "balanceOf",
      "outputs": [
        {
          "internalType": "uint256",
          "name": "",
          "type": "uint256"
        }
      ],
      "stateMutability": "view",
      "type": "function"
    },
    {
      "inputs": [
        {
          "internalType": "uint256",
          "name": "tokenId",
          "type": "uint256"
        }
      ],
      "name": "getApproved",
      "outputs": [
        {
          "internalType": "address",
          "name": "",
          "type": "address"
        }
      ],
      "stateMutability": "view",
      "type": "function"
    },
    {
      "inputs": [
        {
          "internalType": "address",
          "name": "owner",
          "type": "address"
        },
        {
          "internalType": "address",
          "name": "operator",
          "type": "address"
        }
      ],
      "name": "isApprovedForAll",
      "outputs": [
        {
          "internalType": "bool",
          "name": "",
          "type": "bool"
        }
      ],
      "stateMutability": "view",
      "type": "function"
    },
    {
      "inputs": [],
      "name": "maxTokens",
      "outputs": [
        {
          "internalType": "uint8",
          "name": "",
          "type": "uint8"
        }
      ],
      "stateMutability": "view",
      "type": "function"
    },
    {
      "inputs": [],
      "name": "mint",
      "outputs": [],
      "stateMutability": "payable",
      "type": "function"
    },
    {
      "inputs": [],
      "name": "name",
      "outputs": [
        {
          "internalType": "string",
          "name": "",
          "type": "string"
        }
      ],
      "stateMutability": "view",
      "type": "function"
    },
    {
      "inputs": [],
      "name": "owner",
      "outputs": [
        {
          "internalType": "address",
          "name": "",
          "type": "address"
        }
      ],
      "stateMutability": "view",
      "type": "function"
    },
    {
      "inputs": [
        {
          "internalType": "uint256",
          "name": "tokenId",
          "type": "uint256"
        }
      ],
      "name": "ownerOf",
      "outputs": [
        {
          "internalType": "address",
          "name": "",
          "type": "address"
        }
      ],
      "stateMutability": "view",
      "type": "function"
    },
    {
      "inputs": [],
      "name": "renounceOwnership",
      "outputs": [],
      "stateMutability": "nonpayable",
      "type": "function"
    },
    {
      "inputs": [],
      "name": "reservedTokens",
      "outputs": [
        {
          "internalType": "uint8",
          "name": "",
          "type": "uint8"
        }
      ],
      "stateMutability": "view",
      "type": "function"
    },
    {
      "inputs": [],
      "name": "reservedTokensMint",
      "outputs": [
        {
          "internalType": "uint8",
          "name": "",
          "type": "uint8"
        }
      ],
      "stateMutability": "view",
      "type": "function"
    },
    {
      "inputs": [
        {
          "internalType": "address",
          "name": "from",
          "type": "address"
        },
        {
          "internalType": "address",
          "name": "to",
          "type": "address"
        },
        {
          "internalType": "uint256",
          "name": "tokenId",
          "type": "uint256"
        }
      ],
      "name": "safeTransferFrom",
      "outputs": [],
      "stateMutability": "nonpayable",
      "type": "function"
    },
    {
      "inputs": [
        {
          "internalType": "address",
          "name": "from",
          "type": "address"
        },
        {
          "internalType": "address",
          "name": "to",
          "type": "address"
        },
        {
          "internalType": "uint256",
          "name": "tokenId",
          "type": "uint256"
        },
        {
          "internalType": "bytes",
          "name": "data",
          "type": "bytes"
        }
      ],
      "name": "safeTransferFrom",
      "outputs": [],
      "stateMutability": "nonpayable",
      "type": "function"
    },
    {
      "inputs": [
        {
          "internalType": "address",
          "name": "operator",
          "type": "address"
        },
        {
          "internalType": "bool",
          "name": "approved",
          "type": "bool"
        }
      ],
      "name": "setApprovalForAll",
      "outputs": [],
      "stateMutability": "nonpayable",
      "type": "function"
    },
    {
      "inputs": [
        {
          "internalType": "bytes4",
          "name": "interfaceId",
          "type": "bytes4"
        }
      ],
      "name": "supportsInterface",
      "outputs": [
        {
          "internalType": "bool",
          "name": "",
          "type": "bool"
        }
      ],
      "stateMutability": "view",
      "type": "function"
    },
    {
      "inputs": [],
      "name": "symbol",
      "outputs": [
        {
          "internalType": "string",
          "name": "",
          "type": "string"
        }
      ],
      "stateMutability": "view",
      "type": "function"
    },
    {
      "inputs": [
        {
          "internalType": "uint256",
          "name": "index",
          "type": "uint256"
        }
      ],
      "name": "tokenByIndex",
      "outputs": [
        {
          "internalType": "uint256",
          "name": "",
          "type": "uint256"
        }
      ],
      "stateMutability": "view",
      "type": "function"
    },
    {
      "inputs": [
        {
          "internalType": "address",
          "name": "owner",
          "type": "address"
        },
        {
          "internalType": "uint256",
          "name": "index",
          "type": "uint256"
        }
      ],
      "name": "tokenOfOwnerByIndex",
      "outputs": [
        {
          "internalType": "uint256",
          "name": "",
          "type": "uint256"
        }
      ],
      "stateMutability": "view",
      "type": "function"
    },
    {
      "inputs": [
        {
          "internalType": "uint256",
          "name": "tokenId",
          "type": "uint256"
        }
      ],
      "name": "tokenURI",
      "outputs": [
        {
          "internalType": "string",
          "name": "",
          "type": "string"
        }
      ],
      "stateMutability": "view",
      "type": "function"
    },
    {
      "inputs": [],
      "name": "totalSupply",
      "outputs": [
        {
          "internalType": "uint256",
          "name": "",
          "type": "uint256"
        }
      ],
      "stateMutability": "view",
      "type": "function"
    },
    {
      "inputs": [
        {
          "internalType": "address",
          "name": "from",
          "type": "address"
        },
        {
          "internalType": "address",
          "name": "to",
          "type": "address"
        },
        {
          "internalType": "uint256",
          "name": "tokenId",
          "type": "uint256"
        }
      ],
      "name": "transferFrom",
      "outputs": [],
      "stateMutability": "nonpayable",
      "type": "function"
    },
    {
      "inputs": [
        {
          "internalType": "address",
          "name": "newOwner",
          "type": "address"
        }
      ],
      "name": "transferOwnership",
      "outputs": [],
      "stateMutability": "nonpayable",
      "type": "function"
    },
    {
      "inputs": [],
      "name": "withdraw",
      "outputs": [],
      "stateMutability": "nonpayable",
      "type": "function"
    }
  ],
  "bytecode": "0x60806040526000600a60156101000a81548160ff021916908360ff1602179055503480156200002d57600080fd5b506040516200407e3803806200407e833981810160405281019062000053919062000333565b6040518060400160405280600b81526020017f43727970746f20446576730000000000000000000000000000000000000000008152506040518060400160405280600281526020017f43440000000000000000000000000000000000000000000000000000000000008152508160009081620000d09190620005df565b508060019081620000e29190620005df565b50505062000105620000f9620001fb60201b60201c565b6200020360201b60201c565b80600b60006101000a81548173ffffffffffffffffffffffffffffffffffffffff021916908373ffffffffffffffffffffffffffffffffffffffff160217905550600b60009054906101000a900473ffffffffffffffffffffffffffffffffffffffff1673ffffffffffffffffffffffffffffffffffffffff1663e1b0e8026040518163ffffffff1660e01b8152600401602060405180830381865afa158015620001b4573d6000803e3d6000fd5b505050506040513d601f19601f82011682018060405250810190620001da919062000704565b600a60146101000a81548160ff021916908360ff1602179055505062000736565b600033905090565b6000600a60009054906101000a900473ffffffffffffffffffffffffffffffffffffffff16905081600a60006101000a81548173ffffffffffffffffffffffffffffffffffffffff021916908373ffffffffffffffffffffffffffffffffffffffff1602179055508173ffffffffffffffffffffffffffffffffffffffff168173ffffffffffffffffffffffffffffffffffffffff167f8be0079c531659141344cd1fd0a4f28419497f9722a3daafe3b4186f6b6457e060405160405180910390a35050565b600080fd5b600073ffffffffffffffffffffffffffffffffffffffff82169050919050565b6000620002fb82620002ce565b9050919050565b6200030d81620002ee565b81146200031957600080fd5b50565b6000815190506200032d8162000302565b92915050565b6000602082840312156200034c576200034b620002c9565b5b60006200035c848285016200031c565b91505092915050565b600081519050919050565b7f4e487b7100000000000000000000000000000000000000000000000000000000600052604160045260246000fd5b7f4e487b7100000000000000000000000000000000000000000000000000000000600052602260045260246000fd5b60006002820490506001821680620003e757607f821691505b602082108103620003fd57620003fc6200039f565b5b50919050565b60008190508160005260206000209050919050565b60006020601f8301049050919050565b600082821b905092915050565b600060088302620004677fffffffffffffffffffffffffffffffffffffffffffffffffffffffffffffffff8262000428565b62000473868362000428565b95508019841693508086168417925050509392505050565b6000819050919050565b6000819050919050565b6000620004c0620004ba620004b4846200048b565b62000495565b6200048b565b9050919050565b6000819050919050565b620004dc836200049f565b620004f4620004eb82620004c7565b84845462000435565b825550505050565b600090565b6200050b620004fc565b62000518818484620004d1565b505050565b5b8181101562000540576200053460008262000501565b6001810190506200051e565b5050565b601f8211156200058f57620005598162000403565b620005648462000418565b8101602085101562000574578190505b6200058c620005838562000418565b8301826200051d565b50505b505050565b600082821c905092915050565b6000620005b46000198460080262000594565b1980831691505092915050565b6000620005cf8383620005a1565b9150826002028217905092915050565b620005ea8262000365565b67ffffffffffffffff81111562000606576200060562000370565b5b620006128254620003ce565b6200061f82828562000544565b600060209050601f83116001811462000657576000841562000642578287015190505b6200064e8582620005c1565b865550620006be565b601f198416620006678662000403565b60005b8281101562000691578489015182556001820191506020850194506020810190506200066a565b86831015620006b15784890151620006ad601f891682620005a1565b8355505b6001600288020188555050505b505050505050565b600060ff82169050919050565b620006de81620006c6565b8114620006ea57600080fd5b50565b600081519050620006fe81620006d3565b92915050565b6000602082840312156200071d576200071c620002c9565b5b60006200072d84828501620006ed565b91505092915050565b61393880620007466000396000f3fe6080604052600436106101665760003560e01c80636352211e116100d1578063a38bffda1161008a578063e831574211610064578063e83157421461051d578063e84de1e114610548578063e985e9c514610573578063f2fde38b146105b057610166565b8063a38bffda1461048c578063b88d4fde146104b7578063c87b56dd146104e057610166565b80636352211e1461037c57806370a08231146103b9578063715018a6146103f65780638da5cb5b1461040d57806395d89b4114610438578063a22cb4651461046357610166565b806318160ddd1161012357806318160ddd1461026e57806323b872dd146102995780632f745c59146102c25780633ccfd60b146102ff57806342842e0e146103165780634f6ccce71461033f57610166565b806301ffc9a71461016b57806306fdde03146101a8578063081812fc146101d3578063095ea7b3146102105780631249c58b1461023957806315a5534714610243575b600080fd5b34801561017757600080fd5b50610192600480360381019061018d91906125cd565b6105d9565b60405161019f9190612615565b60405180910390f35b3480156101b457600080fd5b506101bd610653565b6040516101ca91906126c0565b60405180910390f35b3480156101df57600080fd5b506101fa60048036038101906101f59190612718565b6106e5565b6040516102079190612786565b60405180910390f35b34801561021c57600080fd5b50610237600480360381019061023291906127cd565b61072b565b005b610241610842565b005b34801561024f57600080fd5b50610258610a62565b6040516102659190612829565b60405180910390f35b34801561027a57600080fd5b50610283610a75565b6040516102909190612853565b60405180910390f35b3480156102a557600080fd5b506102c060048036038101906102bb919061286e565b610a82565b005b3480156102ce57600080fd5b506102e960048036038101906102e491906127cd565b610ae2565b6040516102f69190612853565b60405180910390f35b34801561030b57600080fd5b50610314610b87565b005b34801561032257600080fd5b5061033d6004803603810190610338919061286e565b610c51565b005b34801561034b57600080fd5b5061036660048036038101906103619190612718565b610c71565b6040516103739190612853565b60405180910390f35b34801561038857600080fd5b506103a3600480360381019061039e9190612718565b610ce2565b6040516103b09190612786565b60405180910390f35b3480156103c557600080fd5b506103e060048036038101906103db91906128c1565b610d68565b6040516103ed9190612853565b60405180910390f35b34801561040257600080fd5b5061040b610e1f565b005b34801561041957600080fd5b50610422610e33565b60405161042f9190612786565b60405180910390f35b34801561044457600080fd5b5061044d610e5d565b60405161045a91906126c0565b60405180910390f35b34801561046f57600080fd5b5061048a6004803603810190610485919061291a565b610eef565b005b34801561049857600080fd5b506104a1610f05565b6040516104ae9190612853565b60405180910390f35b3480156104c357600080fd5b506104de60048036038101906104d99190612a8f565b610f10565b005b3480156104ec57600080fd5b5061050760048036038101906105029190612718565b610f72565b60405161051491906126c0565b60405180910390f35b34801561052957600080fd5b50610532610fda565b60405161053f9190612829565b60405180910390f35b34801561055457600080fd5b5061055d610fdf565b60405161056a9190612829565b60405180910390f35b34801561057f57600080fd5b5061059a60048036038101906105959190612b12565b610ff2565b6040516105a79190612615565b60405180910390f35b3480156105bc57600080fd5b506105d760048036038101906105d291906128c1565b611086565b005b60007f780e9d63000000000000000000000000000000000000000000000000000000007bffffffffffffffffffffffffffffffffffffffffffffffffffffffff1916827bffffffffffffffffffffffffffffffffffffffffffffffffffffffff1916148061064c575061064b82611109565b5b9050919050565b60606000805461066290612b81565b80601f016020809104026020016040519081016040528092919081815260200182805461068e90612b81565b80156106db5780601f106106b0576101008083540402835291602001916106db565b820191906000526020600020905b8154815290600101906020018083116106be57829003601f168201915b5050505050905090565b60006106f0826111eb565b6004600083815260200190815260200160002060009054906101000a900473ffffffffffffffffffffffffffffffffffffffff169050919050565b600061073682610ce2565b90508073ffffffffffffffffffffffffffffffffffffffff168373ffffffffffffffffffffffffffffffffffffffff16036107a6576040517f08c379a000000000000000000000000000000000000000000000000000000000815260040161079d90612c24565b60405180910390fd5b8073ffffffffffffffffffffffffffffffffffffffff166107c5611236565b73ffffffffffffffffffffffffffffffffffffffff1614806107f457506107f3816107ee611236565b610ff2565b5b610833576040517f08c379a000000000000000000000000000000000000000000000000000000000815260040161082a90612cb6565b60405180910390fd5b61083d838361123e565b505050565b601460ff16600a60159054906101000a900460ff1660ff16600a60149054906101000a900460ff1660ff16610875610a75565b61087f9190612d05565b6108899190612d39565b106108c9576040517f08c379a00000000000000000000000000000000000000000000000000000000081526004016108c090612db9565b60405180910390fd5b600b60009054906101000a900473ffffffffffffffffffffffffffffffffffffffff1673ffffffffffffffffffffffffffffffffffffffff1663cfdb63ac336040518263ffffffff1660e01b81526004016109249190612786565b602060405180830381865afa158015610941573d6000803e3d6000fd5b505050506040513d601f19601f820116820180604052508101906109659190612dee565b80156109775750662386f26fc1000034105b15610a0457600061098733610d68565b146109c7576040517f08c379a00000000000000000000000000000000000000000000000000000000081526004016109be90612e67565b60405180910390fd5b600a601581819054906101000a900460ff16809291906109e690612e87565b91906101000a81548160ff021916908360ff16021790555050610a4f565b662386f26fc10000341015610a4e576040517f08c379a0000000000000000000000000000000000000000000000000000000008152600401610a4590612f22565b60405180910390fd5b5b610a6033610a5b610a75565b6112f7565b565b600a60149054906101000a900460ff1681565b6000600880549050905090565b610a93610a8d611236565b82611315565b610ad2576040517f08c379a0000000000000000000000000000000000000000000000000000000008152600401610ac990612fb4565b60405180910390fd5b610add8383836113aa565b505050565b6000610aed83610d68565b8210610b2e576040517f08c379a0000000000000000000000000000000000000000000000000000000008152600401610b2590613046565b60405180910390fd5b600660008473ffffffffffffffffffffffffffffffffffffffff1673ffffffffffffffffffffffffffffffffffffffff168152602001908152602001600020600083815260200190815260200160002054905092915050565b610b8f6116a3565b6000610b99610e33565b9050600047905060008273ffffffffffffffffffffffffffffffffffffffff1682604051610bc690613097565b60006040518083038185875af1925050503d8060008114610c03576040519150601f19603f3d011682016040523d82523d6000602084013e610c08565b606091505b5050905080610c4c576040517f08c379a0000000000000000000000000000000000000000000000000000000008152600401610c43906130f8565b60405180910390fd5b505050565b610c6c83838360405180602001604052806000815250610f10565b505050565b6000610c7b610a75565b8210610cbc576040517f08c379a0000000000000000000000000000000000000000000000000000000008152600401610cb39061318a565b60405180910390fd5b60088281548110610cd057610ccf6131aa565b5b90600052602060002001549050919050565b600080610cee83611721565b9050600073ffffffffffffffffffffffffffffffffffffffff168173ffffffffffffffffffffffffffffffffffffffff1603610d5f576040517f08c379a0000000000000000000000000000000000000000000000000000000008152600401610d5690613225565b60405180910390fd5b80915050919050565b60008073ffffffffffffffffffffffffffffffffffffffff168273ffffffffffffffffffffffffffffffffffffffff1603610dd8576040517f08c379a0000000000000000000000000000000000000000000000000000000008152600401610dcf906132b7565b60405180910390fd5b600360008373ffffffffffffffffffffffffffffffffffffffff1673ffffffffffffffffffffffffffffffffffffffff168152602001908152602001600020549050919050565b610e276116a3565b610e31600061175e565b565b6000600a60009054906101000a900473ffffffffffffffffffffffffffffffffffffffff16905090565b606060018054610e6c90612b81565b80601f0160208091040260200160405190810160405280929190818152602001828054610e9890612b81565b8015610ee55780601f10610eba57610100808354040283529160200191610ee5565b820191906000526020600020905b815481529060010190602001808311610ec857829003601f168201915b5050505050905090565b610f01610efa611236565b8383611824565b5050565b662386f26fc1000081565b610f21610f1b611236565b83611315565b610f60576040517f08c379a0000000000000000000000000000000000000000000000000000000008152600401610f5790612fb4565b60405180910390fd5b610f6c84848484611990565b50505050565b6060610f7d826111eb565b6000610f876119ec565b90506000815111610fa75760405180602001604052806000815250610fd2565b80610fb184611a03565b604051602001610fc2929190613313565b6040516020818303038152906040525b915050919050565b601481565b600a60159054906101000a900460ff1681565b6000600560008473ffffffffffffffffffffffffffffffffffffffff1673ffffffffffffffffffffffffffffffffffffffff16815260200190815260200160002060008373ffffffffffffffffffffffffffffffffffffffff1673ffffffffffffffffffffffffffffffffffffffff16815260200190815260200160002060009054906101000a900460ff16905092915050565b61108e6116a3565b600073ffffffffffffffffffffffffffffffffffffffff168173ffffffffffffffffffffffffffffffffffffffff16036110fd576040517f08c379a00000000000000000000000000000000000000000000000000000000081526004016110f4906133a9565b60405180910390fd5b6111068161175e565b50565b60007f80ac58cd000000000000000000000000000000000000000000000000000000007bffffffffffffffffffffffffffffffffffffffffffffffffffffffff1916827bffffffffffffffffffffffffffffffffffffffffffffffffffffffff191614806111d457507f5b5e139f000000000000000000000000000000000000000000000000000000007bffffffffffffffffffffffffffffffffffffffffffffffffffffffff1916827bffffffffffffffffffffffffffffffffffffffffffffffffffffffff1916145b806111e457506111e382611ad1565b5b9050919050565b6111f481611b3b565b611233576040517f08c379a000000000000000000000000000000000000000000000000000000000815260040161122a90613225565b60405180910390fd5b50565b600033905090565b816004600083815260200190815260200160002060006101000a81548173ffffffffffffffffffffffffffffffffffffffff021916908373ffffffffffffffffffffffffffffffffffffffff160217905550808273ffffffffffffffffffffffffffffffffffffffff166112b183610ce2565b73ffffffffffffffffffffffffffffffffffffffff167f8c5be1e5ebec7d5bd14f71427d1e84f3dd0314c0f7b2291e5b200ac8c7c3b92560405160405180910390a45050565b611311828260405180602001604052806000815250611b7c565b5050565b60008061132183610ce2565b90508073ffffffffffffffffffffffffffffffffffffffff168473ffffffffffffffffffffffffffffffffffffffff16148061136357506113628185610ff2565b5b806113a157508373ffffffffffffffffffffffffffffffffffffffff16611389846106e5565b73ffffffffffffffffffffffffffffffffffffffff16145b91505092915050565b8273ffffffffffffffffffffffffffffffffffffffff166113ca82610ce2565b73ffffffffffffffffffffffffffffffffffffffff1614611420576040517f08c379a00000000000000000000000000000000000000000000000000000000081526004016114179061343b565b60405180910390fd5b600073ffffffffffffffffffffffffffffffffffffffff168273ffffffffffffffffffffffffffffffffffffffff160361148f576040517f08c379a0000000000000000000000000000000000000000000000000000000008152600401611486906134cd565b60405180910390fd5b61149c8383836001611bd7565b8273ffffffffffffffffffffffffffffffffffffffff166114bc82610ce2565b73ffffffffffffffffffffffffffffffffffffffff1614611512576040517f08c379a00000000000000000000000000000000000000000000000000000000081526004016115099061343b565b60405180910390fd5b6004600082815260200190815260200160002060006101000a81549073ffffffffffffffffffffffffffffffffffffffff02191690556001600360008573ffffffffffffffffffffffffffffffffffffffff1673ffffffffffffffffffffffffffffffffffffffff168152602001908152602001600020600082825403925050819055506001600360008473ffffffffffffffffffffffffffffffffffffffff1673ffffffffffffffffffffffffffffffffffffffff16815260200190815260200160002060008282540192505081905550816002600083815260200190815260200160002060006101000a81548173ffffffffffffffffffffffffffffffffffffffff021916908373ffffffffffffffffffffffffffffffffffffffff160217905550808273ffffffffffffffffffffffffffffffffffffffff168473ffffffffffffffffffffffffffffffffffffffff167fddf252ad1be2c89b69c2b068fc378daa952ba7f163c4a11628f55a4df523b3ef60405160405180910390a461169e8383836001611d35565b505050565b6116ab611236565b73ffffffffffffffffffffffffffffffffffffffff166116c9610e33565b73ffffffffffffffffffffffffffffffffffffffff161461171f576040517f08c379a000000000000000000000000000000000000000000000000000000000815260040161171690613539565b60405180910390fd5b565b60006002600083815260200190815260200160002060009054906101000a900473ffffffffffffffffffffffffffffffffffffffff169050919050565b6000600a60009054906101000a900473ffffffffffffffffffffffffffffffffffffffff16905081600a60006101000a81548173ffffffffffffffffffffffffffffffffffffffff021916908373ffffffffffffffffffffffffffffffffffffffff1602179055508173ffffffffffffffffffffffffffffffffffffffff168173ffffffffffffffffffffffffffffffffffffffff167f8be0079c531659141344cd1fd0a4f28419497f9722a3daafe3b4186f6b6457e060405160405180910390a35050565b8173ffffffffffffffffffffffffffffffffffffffff168373ffffffffffffffffffffffffffffffffffffffff1603611892576040517f08c379a0000000000000000000000000000000000000000000000000000000008152600401611889906135a5565b60405180910390fd5b80600560008573ffffffffffffffffffffffffffffffffffffffff1673ffffffffffffffffffffffffffffffffffffffff16815260200190815260200160002060008473ffffffffffffffffffffffffffffffffffffffff1673ffffffffffffffffffffffffffffffffffffffff16815260200190815260200160002060006101000a81548160ff0219169083151502179055508173ffffffffffffffffffffffffffffffffffffffff168373ffffffffffffffffffffffffffffffffffffffff167f17307eab39ab6107e8899845ad3d59bd9653f200f220920489ca2b5937696c31836040516119839190612615565b60405180910390a3505050565b61199b8484846113aa565b6119a784848484611d3b565b6119e6576040517f08c379a00000000000000000000000000000000000000000000000000000000081526004016119dd90613637565b60405180910390fd5b50505050565b606060405180602001604052806000815250905090565b606060006001611a1284611ec2565b01905060008167ffffffffffffffff811115611a3157611a30612964565b5b6040519080825280601f01601f191660200182016040528015611a635781602001600182028036833780820191505090505b509050600082602001820190505b600115611ac6578080600190039150507f3031323334353637383961626364656600000000000000000000000000000000600a86061a8153600a8581611aba57611ab9613657565b5b04945060008503611a71575b819350505050919050565b60007f01ffc9a7000000000000000000000000000000000000000000000000000000007bffffffffffffffffffffffffffffffffffffffffffffffffffffffff1916827bffffffffffffffffffffffffffffffffffffffffffffffffffffffff1916149050919050565b60008073ffffffffffffffffffffffffffffffffffffffff16611b5d83611721565b73ffffffffffffffffffffffffffffffffffffffff1614159050919050565b611b868383612015565b611b936000848484611d3b565b611bd2576040517f08c379a0000000000000000000000000000000000000000000000000000000008152600401611bc990613637565b60405180910390fd5b505050565b611be384848484612232565b6001811115611c27576040517f08c379a0000000000000000000000000000000000000000000000000000000008152600401611c1e906136f8565b60405180910390fd5b6000829050600073ffffffffffffffffffffffffffffffffffffffff168573ffffffffffffffffffffffffffffffffffffffff1603611c6e57611c6981612238565b611cad565b8373ffffffffffffffffffffffffffffffffffffffff168573ffffffffffffffffffffffffffffffffffffffff1614611cac57611cab8582612281565b5b5b600073ffffffffffffffffffffffffffffffffffffffff168473ffffffffffffffffffffffffffffffffffffffff1603611cef57611cea816123ee565b611d2e565b8473ffffffffffffffffffffffffffffffffffffffff168473ffffffffffffffffffffffffffffffffffffffff1614611d2d57611d2c84826124bf565b5b5b5050505050565b50505050565b6000611d5c8473ffffffffffffffffffffffffffffffffffffffff1661253e565b15611eb5578373ffffffffffffffffffffffffffffffffffffffff1663150b7a02611d85611236565b8786866040518563ffffffff1660e01b8152600401611da7949392919061376d565b6020604051808303816000875af1925050508015611de357506040513d601f19601f82011682018060405250810190611de091906137ce565b60015b611e65573d8060008114611e13576040519150601f19603f3d011682016040523d82523d6000602084013e611e18565b606091505b506000815103611e5d576040517f08c379a0000000000000000000000000000000000000000000000000000000008152600401611e5490613637565b60405180910390fd5b805181602001fd5b63150b7a0260e01b7bffffffffffffffffffffffffffffffffffffffffffffffffffffffff1916817bffffffffffffffffffffffffffffffffffffffffffffffffffffffff191614915050611eba565b600190505b949350505050565b600080600090507a184f03e93ff9f4daa797ed6e38ed64bf6a1f0100000000000000008310611f20577a184f03e93ff9f4daa797ed6e38ed64bf6a1f0100000000000000008381611f1657611f15613657565b5b0492506040810190505b6d04ee2d6d415b85acef81000000008310611f5d576d04ee2d6d415b85acef81000000008381611f5357611f52613657565b5b0492506020810190505b662386f26fc100008310611f8c57662386f26fc100008381611f8257611f81613657565b5b0492506010810190505b6305f5e1008310611fb5576305f5e1008381611fab57611faa613657565b5b0492506008810190505b6127108310611fda576127108381611fd057611fcf613657565b5b0492506004810190505b60648310611ffd5760648381611ff357611ff2613657565b5b0492506002810190505b600a831061200c576001810190505b80915050919050565b600073ffffffffffffffffffffffffffffffffffffffff168273ffffffffffffffffffffffffffffffffffffffff1603612084576040517f08c379a000000000000000000000000000000000000000000000000000000000815260040161207b90613847565b60405180910390fd5b61208d81611b3b565b156120cd576040517f08c379a00000000000000000000000000000000000000000000000000000000081526004016120c4906138b3565b60405180910390fd5b6120db600083836001611bd7565b6120e481611b3b565b15612124576040517f08c379a000000000000000000000000000000000000000000000000000000000815260040161211b906138b3565b60405180910390fd5b6001600360008473ffffffffffffffffffffffffffffffffffffffff1673ffffffffffffffffffffffffffffffffffffffff16815260200190815260200160002060008282540192505081905550816002600083815260200190815260200160002060006101000a81548173ffffffffffffffffffffffffffffffffffffffff021916908373ffffffffffffffffffffffffffffffffffffffff160217905550808273ffffffffffffffffffffffffffffffffffffffff16600073ffffffffffffffffffffffffffffffffffffffff167fddf252ad1be2c89b69c2b068fc378daa952ba7f163c4a11628f55a4df523b3ef60405160405180910390a461222e600083836001611d35565b5050565b50505050565b6008805490506009600083815260200190815260200160002081905550600881908060018154018082558091505060019003906000526020600020016000909190919091505550565b6000600161228e84610d68565b6122989190612d39565b905060006007600084815260200190815260200160002054905081811461237d576000600660008673ffffffffffffffffffffffffffffffffffffffff1673ffffffffffffffffffffffffffffffffffffffff168152602001908152602001600020600084815260200190815260200160002054905080600660008773ffffffffffffffffffffffffffffffffffffffff1673ffffffffffffffffffffffffffffffffffffffff168152602001908152602001600020600084815260200190815260200160002081905550816007600083815260200190815260200160002081905550505b6007600084815260200190815260200160002060009055600660008573ffffffffffffffffffffffffffffffffffffffff1673ffffffffffffffffffffffffffffffffffffffff16815260200190815260200160002060008381526020019081526020016000206000905550505050565b600060016008805490506124029190612d39565b9050600060096000848152602001908152602001600020549050600060088381548110612432576124316131aa565b5b906000526020600020015490508060088381548110612454576124536131aa565b5b9060005260206000200181905550816009600083815260200190815260200160002081905550600960008581526020019081526020016000206000905560088054806124a3576124a26138d3565b5b6001900381819060005260206000200160009055905550505050565b60006124ca83610d68565b905081600660008573ffffffffffffffffffffffffffffffffffffffff1673ffffffffffffffffffffffffffffffffffffffff168152602001908152602001600020600083815260200190815260200160002081905550806007600084815260200190815260200160002081905550505050565b6000808273ffffffffffffffffffffffffffffffffffffffff163b119050919050565b6000604051905090565b600080fd5b600080fd5b60007fffffffff0000000000000000000000000000000000000000000000000000000082169050919050565b6125aa81612575565b81146125b557600080fd5b50565b6000813590506125c7816125a1565b92915050565b6000602082840312156125e3576125e261256b565b5b60006125f1848285016125b8565b91505092915050565b60008115159050919050565b61260f816125fa565b82525050565b600060208201905061262a6000830184612606565b92915050565b600081519050919050565b600082825260208201905092915050565b60005b8381101561266a57808201518184015260208101905061264f565b60008484015250505050565b6000601f19601f8301169050919050565b600061269282612630565b61269c818561263b565b93506126ac81856020860161264c565b6126b581612676565b840191505092915050565b600060208201905081810360008301526126da8184612687565b905092915050565b6000819050919050565b6126f5816126e2565b811461270057600080fd5b50565b600081359050612712816126ec565b92915050565b60006020828403121561272e5761272d61256b565b5b600061273c84828501612703565b91505092915050565b600073ffffffffffffffffffffffffffffffffffffffff82169050919050565b600061277082612745565b9050919050565b61278081612765565b82525050565b600060208201905061279b6000830184612777565b92915050565b6127aa81612765565b81146127b557600080fd5b50565b6000813590506127c7816127a1565b92915050565b600080604083850312156127e4576127e361256b565b5b60006127f2858286016127b8565b925050602061280385828601612703565b9150509250929050565b600060ff82169050919050565b6128238161280d565b82525050565b600060208201905061283e600083018461281a565b92915050565b61284d816126e2565b82525050565b60006020820190506128686000830184612844565b92915050565b6000806000606084860312156128875761288661256b565b5b6000612895868287016127b8565b93505060206128a6868287016127b8565b92505060406128b786828701612703565b9150509250925092565b6000602082840312156128d7576128d661256b565b5b60006128e5848285016127b8565b91505092915050565b6128f7816125fa565b811461290257600080fd5b50565b600081359050612914816128ee565b92915050565b600080604083850312156129315761293061256b565b5b600061293f858286016127b8565b925050602061295085828601612905565b9150509250929050565b600080fd5b600080fd5b7f4e487b7100000000000000000000000000000000000000000000000000000000600052604160045260246000fd5b61299c82612676565b810181811067ffffffffffffffff821117156129bb576129ba612964565b5b80604052505050565b60006129ce612561565b90506129da8282612993565b919050565b600067ffffffffffffffff8211156129fa576129f9612964565b5b612a0382612676565b9050602081019050919050565b82818337600083830152505050565b6000612a32612a2d846129df565b6129c4565b905082815260208101848484011115612a4e57612a4d61295f565b5b612a59848285612a10565b509392505050565b600082601f830112612a7657612a7561295a565b5b8135612a86848260208601612a1f565b91505092915050565b60008060008060808587031215612aa957612aa861256b565b5b6000612ab7878288016127b8565b9450506020612ac8878288016127b8565b9350506040612ad987828801612703565b925050606085013567ffffffffffffffff811115612afa57612af9612570565b5b612b0687828801612a61565b91505092959194509250565b60008060408385031215612b2957612b2861256b565b5b6000612b37858286016127b8565b9250506020612b48858286016127b8565b9150509250929050565b7f4e487b7100000000000000000000000000000000000000000000000000000000600052602260045260246000fd5b60006002820490506001821680612b9957607f821691505b602082108103612bac57612bab612b52565b5b50919050565b7f4552433732313a20617070726f76616c20746f2063757272656e74206f776e6560008201527f7200000000000000000000000000000000000000000000000000000000000000602082015250565b6000612c0e60218361263b565b9150612c1982612bb2565b604082019050919050565b60006020820190508181036000830152612c3d81612c01565b9050919050565b7f4552433732313a20617070726f76652063616c6c6572206973206e6f7420746f60008201527f6b656e206f776e6572206f7220617070726f76656420666f7220616c6c000000602082015250565b6000612ca0603d8361263b565b9150612cab82612c44565b604082019050919050565b60006020820190508181036000830152612ccf81612c93565b9050919050565b7f4e487b7100000000000000000000000000000000000000000000000000000000600052601160045260246000fd5b6000612d10826126e2565b9150612d1b836126e2565b9250828201905080821115612d3357612d32612cd6565b5b92915050565b6000612d44826126e2565b9150612d4f836126e2565b9250828203905081811115612d6757612d66612cd6565b5b92915050565b7f6d617820737570706c7920686173206265656e20726561636865640000000000600082015250565b6000612da3601b8361263b565b9150612dae82612d6d565b602082019050919050565b60006020820190508181036000830152612dd281612d96565b9050919050565b600081519050612de8816128ee565b92915050565b600060208284031215612e0457612e0361256b565b5b6000612e1284828501612dd9565b91505092915050565b7f5573657220616c7265616479206861732061204e465400000000000000000000600082015250565b6000612e5160168361263b565b9150612e5c82612e1b565b602082019050919050565b60006020820190508181036000830152612e8081612e44565b9050919050565b6000612e928261280d565b915060ff8203612ea557612ea4612cd6565b5b600182019050919050565b7f4574682076616c7565206973206e6f7420656e6f75676820746f20627579207460008201527f6865204e46540000000000000000000000000000000000000000000000000000602082015250565b6000612f0c60268361263b565b9150612f1782612eb0565b604082019050919050565b60006020820190508181036000830152612f3b81612eff565b9050919050565b7f4552433732313a2063616c6c6572206973206e6f7420746f6b656e206f776e6560008201527f72206f7220617070726f76656400000000000000000000000000000000000000602082015250565b6000612f9e602d8361263b565b9150612fa982612f42565b604082019050919050565b60006020820190508181036000830152612fcd81612f91565b9050919050565b7f455243373231456e756d657261626c653a206f776e657220696e646578206f7560008201527f74206f6620626f756e6473000000000000000000000000000000000000000000602082015250565b6000613030602b8361263b565b915061303b82612fd4565b604082019050919050565b6000602082019050818103600083015261305f81613023565b9050919050565b600081905092915050565b50565b6000613081600083613066565b915061308c82613071565b600082019050919050565b60006130a282613074565b9150819050919050565b7f6661696c656420746f2073656e64204574686572000000000000000000000000600082015250565b60006130e260148361263b565b91506130ed826130ac565b602082019050919050565b60006020820190508181036000830152613111816130d5565b9050919050565b7f455243373231456e756d657261626c653a20676c6f62616c20696e646578206f60008201527f7574206f6620626f756e64730000000000000000000000000000000000000000602082015250565b6000613174602c8361263b565b915061317f82613118565b604082019050919050565b600060208201905081810360008301526131a381613167565b9050919050565b7f4e487b7100000000000000000000000000000000000000000000000000000000600052603260045260246000fd5b7f4552433732313a20696e76616c696420746f6b656e2049440000000000000000600082015250565b600061320f60188361263b565b915061321a826131d9565b602082019050919050565b6000602082019050818103600083015261323e81613202565b9050919050565b7f4552433732313a2061646472657373207a65726f206973206e6f74206120766160008201527f6c6964206f776e65720000000000000000000000000000000000000000000000602082015250565b60006132a160298361263b565b91506132ac82613245565b604082019050919050565b600060208201905081810360008301526132d081613294565b9050919050565b600081905092915050565b60006132ed82612630565b6132f781856132d7565b935061330781856020860161264c565b80840191505092915050565b600061331f82856132e2565b915061332b82846132e2565b91508190509392505050565b7f4f776e61626c653a206e6577206f776e657220697320746865207a65726f206160008201527f6464726573730000000000000000000000000000000000000000000000000000602082015250565b600061339360268361263b565b915061339e82613337565b604082019050919050565b600060208201905081810360008301526133c281613386565b9050919050565b7f4552433732313a207472616e736665722066726f6d20696e636f72726563742060008201527f6f776e6572000000000000000000000000000000000000000000000000000000602082015250565b600061342560258361263b565b9150613430826133c9565b604082019050919050565b6000602082019050818103600083015261345481613418565b9050919050565b7f4552433732313a207472616e7366657220746f20746865207a65726f2061646460008201527f7265737300000000000000000000000000000000000000000000000000000000602082015250565b60006134b760248361263b565b91506134c28261345b565b604082019050919050565b600060208201905081810360008301526134e6816134aa565b9050919050565b7f4f776e61626c653a2063616c6c6572206973206e6f7420746865206f776e6572600082015250565b600061352360208361263b565b915061352e826134ed565b602082019050919050565b6000602082019050818103600083015261355281613516565b9050919050565b7f4552433732313a20617070726f766520746f2063616c6c657200000000000000600082015250565b600061358f60198361263b565b915061359a82613559565b602082019050919050565b600060208201905081810360008301526135be81613582565b9050919050565b7f4552433732313a207472616e7366657220746f206e6f6e20455243373231526560008201527f63656976657220696d706c656d656e7465720000000000000000000000000000602082015250565b600061362160328361263b565b915061362c826135c5565b604082019050919050565b6000602082019050818103600083015261365081613614565b9050919050565b7f4e487b7100000000000000000000000000000000000000000000000000000000600052601260045260246000fd5b7f455243373231456e756d657261626c653a20636f6e736563757469766520747260008201527f616e7366657273206e6f7420737570706f727465640000000000000000000000602082015250565b60006136e260358361263b565b91506136ed82613686565b604082019050919050565b60006020820190508181036000830152613711816136d5565b9050919050565b600081519050919050565b600082825260208201905092915050565b600061373f82613718565b6137498185613723565b935061375981856020860161264c565b61376281612676565b840191505092915050565b60006080820190506137826000830187612777565b61378f6020830186612777565b61379c6040830185612844565b81810360608301526137ae8184613734565b905095945050505050565b6000815190506137c8816125a1565b92915050565b6000602082840312156137e4576137e361256b565b5b60006137f2848285016137b9565b91505092915050565b7f4552433732313a206d696e7420746f20746865207a65726f2061646472657373600082015250565b600061383160208361263b565b915061383c826137fb565b602082019050919050565b6000602082019050818103600083015261386081613824565b9050919050565b7f4552433732313a20746f6b656e20616c7265616479206d696e74656400000000600082015250565b600061389d601c8361263b565b91506138a882613867565b602082019050919050565b600060208201905081810360008301526138cc81613890565b9050919050565b7f4e487b7100000000000000000000000000000000000000000000000000000000600052603160045260246000fdfea2646970667358221220acfb303579700068c5cb57a79d7f585c1e04a25d7215a5cefbf3d511eb6b1cc864736f6c63430008120033",
  "linkReferences": {},
  "deployedLinkReferences": {}
}