{
  "_format": "hh-sol-artifact-1",
  "contractName": "whitelist",
  "sourceName": "contracts/whitelist.sol",
  "abi": [
    {
      "inputs": [
        {
          "internalType": "uint8",
          "name": "_maxUsers",
          "type": "uint8"
        }
      ],
      "stateMutability": "nonpayable",
      "type": "constructor"
    },
    {
      "inputs": [
        {
          "internalType": "address",
          "name": "",
          "type": "address"
        }
      ],
      "name": "_whitelist",
      "outputs": [
        {
          "internalType": "bool",
          "name": "",
          "type": "bool"
        }
      ],
      "stateMutability": "view",
      "type": "function"
    },
    {
      "inputs": [
        {
          "internalType": "address",
          "name": "user",
          "type": "address"
        }
      ],
      "name": "add",
      "outputs": [],
      "stateMutability": "nonpayable",
      "type": "function"
    },
    {
      "inputs": [],
      "name": "currentUsers",
      "outputs": [
        {
          "internalType": "uint8",
          "name": "",
          "type": "uint8"
        }
      ],
      "stateMutability": "view",
      "type": "function"
    },
    {
      "inputs": [],
      "name": "maxUsers",
      "outputs": [
        {
          "internalType": "uint8",
          "name": "",
          "type": "uint8"
        }
      ],
      "stateMutability": "view",
      "type": "function"
    },
    {
      "inputs": [
        {
          "internalType": "address",
          "name": "user",
          "type": "address"
        }
      ],
      "name": "remove",
      "outputs": [],
      "stateMutability": "nonpayable",
      "type": "function"
    }
  ],
  "bytecode": "0x608060405234801561001057600080fd5b5060405161073c38038061073c83398181016040528101906100329190610090565b806000806101000a81548160ff021916908360ff160217905550506100bd565b600080fd5b600060ff82169050919050565b61006d81610057565b811461007857600080fd5b50565b60008151905061008a81610064565b92915050565b6000602082840312156100a6576100a5610052565b5b60006100b48482850161007b565b91505092915050565b610670806100cc6000396000f3fe608060405234801561001057600080fd5b50600436106100575760003560e01c80630a3b0a4f1461005c57806318084da81461007857806329092d0e14610096578063cfdb63ac146100b2578063e1b0e802146100e2575b600080fd5b61007660048036038101906100719190610410565b610100565b005b610080610283565b60405161008d9190610459565b60405180910390f35b6100b060048036038101906100ab9190610410565b610296565b005b6100cc60048036038101906100c79190610410565b61037c565b6040516100d9919061048f565b60405180910390f35b6100ea61039c565b6040516100f79190610459565b60405180910390f35b600160003373ffffffffffffffffffffffffffffffffffffffff1673ffffffffffffffffffffffffffffffffffffffff16815260200190815260200160002060009054906101000a900460ff161561018d576040517f08c379a00000000000000000000000000000000000000000000000000000000081526004016101849061052d565b60405180910390fd5b60008054906101000a900460ff1660ff16600060019054906101000a900460ff1660ff16106101f1576040517f08c379a00000000000000000000000000000000000000000000000000000000081526004016101e890610599565b60405180910390fd5b60018060008373ffffffffffffffffffffffffffffffffffffffff1673ffffffffffffffffffffffffffffffffffffffff16815260200190815260200160002060006101000a81548160ff0219169083151502179055506000600181819054906101000a900460ff1680929190610267906105e8565b91906101000a81548160ff021916908360ff1602179055505050565b600060019054906101000a900460ff1681565b60018060008373ffffffffffffffffffffffffffffffffffffffff1673ffffffffffffffffffffffffffffffffffffffff16815260200190815260200160002060006101000a81548160ff02191690831515021790551561032a576000600181819054906101000a900460ff168092919061031090610611565b91906101000a81548160ff021916908360ff160217905550505b600160008273ffffffffffffffffffffffffffffffffffffffff1673ffffffffffffffffffffffffffffffffffffffff16815260200190815260200160002060006101000a81549060ff021916905550565b60016020528060005260406000206000915054906101000a900460ff1681565b60008054906101000a900460ff1681565b600080fd5b600073ffffffffffffffffffffffffffffffffffffffff82169050919050565b60006103dd826103b2565b9050919050565b6103ed816103d2565b81146103f857600080fd5b50565b60008135905061040a816103e4565b92915050565b600060208284031215610426576104256103ad565b5b6000610434848285016103fb565b91505092915050565b600060ff82169050919050565b6104538161043d565b82525050565b600060208201905061046e600083018461044a565b92915050565b60008115159050919050565b61048981610474565b82525050565b60006020820190506104a46000830184610480565b92915050565b600082825260208201905092915050565b7f53656e6465722068617320616c7265616479206265656e2077686974656c697360008201527f7465640000000000000000000000000000000000000000000000000000000000602082015250565b60006105176023836104aa565b9150610522826104bb565b604082019050919050565b600060208201905081810360008301526105468161050a565b9050919050565b7f4e6f206d6f72652075736572732063616e2062652077686974656c6973746564600082015250565b60006105836020836104aa565b915061058e8261054d565b602082019050919050565b600060208201905081810360008301526105b281610576565b9050919050565b7f4e487b7100000000000000000000000000000000000000000000000000000000600052601160045260246000fd5b60006105f38261043d565b915060ff8203610606576106056105b9565b5b600182019050919050565b600061061c8261043d565b91506000820361062f5761062e6105b9565b5b60018203905091905056fea2646970667358221220f7ccc1578b670b89d28006112813f68d7e087568c8fc016642b75e5d7be352e264736f6c63430008120033",
  "linkReferences": {},
  "deployedLinkReferences": {}
}